{
  "contractName": "SimpleStorage",
  "abi": [
    {
      "constant": false,
      "inputs": [
        {
          "internalType": "uint256",
          "name": "thisYear",
          "type": "uint256"
        },
        {
          "internalType": "uint256",
          "name": "lastYear",
          "type": "uint256"
        }
      ],
      "name": "TrafficVolumePerformanceReward",
      "outputs": [],
      "payable": false,
      "stateMutability": "nonpayable",
      "type": "function"
    },
    {
      "constant": true,
      "inputs": [],
      "name": "getResult",
      "outputs": [
        {
          "internalType": "uint256",
          "name": "",
          "type": "uint256"
        }
      ],
      "payable": false,
      "stateMutability": "view",
      "type": "function"
    },
    {
      "constant": true,
      "inputs": [],
      "name": "get",
      "outputs": [
        {
          "internalType": "uint256",
          "name": "",
          "type": "uint256"
        }
      ],
      "payable": false,
      "stateMutability": "view",
      "type": "function"
    },
    {
      "constant": false,
      "inputs": [
        {
          "internalType": "uint256",
          "name": "x",
          "type": "uint256"
        }
      ],
      "name": "set",
      "outputs": [],
      "payable": false,
      "stateMutability": "nonpayable",
      "type": "function"
    }
  ],
  "bytecode": "0x608060405234801561001057600080fd5b50610153806100206000396000f3fe608060405234801561001057600080fd5b506004361061004c5760003560e01c806360fe47b1146100515780636d4ce63c1461007f57806370e6bc751461009d578063de292789146100d5575b600080fd5b61007d6004803603602081101561006757600080fd5b81019080803590602001909291905050506100f3565b005b6100876100fd565b6040518082815260200191505060405180910390f35b6100d3600480360360408110156100b357600080fd5b810190808035906020019092919080359060200190929190505050610106565b005b6100dd610114565b6040518082815260200191505060405180910390f35b8060008190555050565b60008054905090565b600f82026001819055505050565b600060015490509056fea265627a7a723158208843e264aadc86884ab1a8a789c570ae963fa7bb26779a5f8ee0d89731d699b264736f6c63430005100032",
  "source": "// SPDX-License-Identifier: MIT\npragma solidity >=0.4.21 <0.7.0;\n\ncontract SimpleStorage {\n  uint storedData;\n  uint result;\n  uint temp;\n\n  function TrafficVolumePerformanceReward(uint thisYear, uint lastYear) public {\n    result = thisYear * 15;\n  }\n\n  function getResult() public view returns (uint) {\n    return result;\n  }\n\n  function get() public view returns (uint) {\n    return storedData;\n  }\n\n  function set(uint x) public {\n    storedData = x;\n  }\n}\n",
  "sourcePath": "/Users/wei/code/MOTC_Competition_Contract/contracts/SimpleStorage.sol",
  "compiler": {
    "name": "solc",
    "version": "0.5.16+commit.9c3226ce.Emscripten.clang"
  },
  "schemaVersion": "3.2.2",
  "updatedAt": "2020-08-21T17:51:49.892Z",
  "devdoc": {
    "methods": {}
  },
  "userdoc": {
    "methods": {}
  }
}