{
  "contractName": "Subsidy",
  "abi": [
    {
      "inputs": [],
      "payable": false,
      "stateMutability": "nonpayable",
      "type": "constructor"
    },
    {
      "constant": false,
      "inputs": [
        {
          "internalType": "uint256",
          "name": "_path",
          "type": "uint256"
        },
        {
          "internalType": "uint256",
          "name": "_cost",
          "type": "uint256"
        },
        {
          "internalType": "uint256",
          "name": "_incomePerCar",
          "type": "uint256"
        },
        {
          "internalType": "uint256",
          "name": "_timesPerCar",
          "type": "uint256"
        },
        {
          "internalType": "uint256",
          "name": "_mileage",
          "type": "uint256"
        },
        {
          "internalType": "uint256",
          "name": "_ratio",
          "type": "uint256"
        },
        {
          "internalType": "uint256",
          "name": "_companyScore",
          "type": "uint256"
        }
      ],
      "name": "pushData",
      "outputs": [],
      "payable": false,
      "stateMutability": "nonpayable",
      "type": "function"
    },
    {
      "constant": true,
      "inputs": [
        {
          "internalType": "uint256",
          "name": "_path",
          "type": "uint256"
        }
      ],
      "name": "getBonus",
      "outputs": [
        {
          "internalType": "uint256",
          "name": "",
          "type": "uint256"
        }
      ],
      "payable": false,
      "stateMutability": "view",
      "type": "function"
    },
    {
      "constant": true,
      "inputs": [],
      "name": "indexArray",
      "outputs": [
        {
          "internalType": "uint256[]",
          "name": "",
          "type": "uint256[]"
        }
      ],
      "payable": false,
      "stateMutability": "view",
      "type": "function"
    }
  ],
  "bytecode": "0x608060405234801561001057600080fd5b5060006115e0908060018154018082558091505090600182039060005260206000200160009091929091909150555060016040518060e001604052806115e061ffff1681526020016196aa61ffff16815260200161383561ffff168152602001600461ffff1681526020016106a461ffff168152602001600161ffff168152602001604161ffff168152509080600181540180825580915050906001820390600052602060002001600090919290919091509060076100d092919061028e565b50506101006000600160008054905003815481106100ea57fe5b906000526020600020015461010560201b60201c565b610353565b600060016000805490500390506000620186a06001838154811061012557fe5b9060005260206000200160068154811061013b57fe5b90600052602060002001546001848154811061015357fe5b9060005260206000200160058154811061016957fe5b90600052602060002001546001858154811061018157fe5b9060005260206000200160048154811061019757fe5b9060005260206000200154600186815481106101af57fe5b906000526020600020016003815481106101c557fe5b9060005260206000200154600187815481106101dd57fe5b906000526020600020016002815481106101f357fe5b90600052602060002001546001888154811061020b57fe5b9060005260206000200160018154811061022157fe5b906000526020600020015403020202028161023857fe5b04905060026040518060400160405280858152602001838152509080600181540180825580915050906001820390600052602060002001600090919290919091509060026102879291906102e1565b5050505050565b8280548282559060005260206000209081019282156102d0579160200282015b828111156102cf578251829061ffff169055916020019190600101906102ae565b5b5090506102dd919061032e565b5090565b82805482825590600052602060002090810192821561031d579160200282015b8281111561031c578251825591602001919060010190610301565b5b50905061032a919061032e565b5090565b61035091905b8082111561034c576000816000905550600101610334565b5090565b90565b6105c7806103626000396000f3fe608060405234801561001057600080fd5b50600436106100415760003560e01c80634aa66b2814610046578063634e9eee14610088578063e98c3e3a146100e7575b600080fd5b6100726004803603602081101561005c57600080fd5b8101908080359060200190929190505050610151565b6040518082815260200191505060405180910390f35b6100906101d3565b6040518080602001828103825283818151815260200191508051906020019060200280838360005b838110156100d35780820151818401526020810190506100b8565b505050509050019250505060405180910390f35b61014f600480360360e08110156100fd57600080fd5b810190808035906020019092919080359060200190929190803590602001909291908035906020019092919080359060200190929190803590602001909291908035906020019092919050505061022b565b005b600080600090505b6000805490508110156101c8576000818154811061017357fe5b90600052602060002001548314156101bb576002818154811061019257fe5b906000526020600020016001815481106101a857fe5b90600052602060002001549150506101ce565b8080600101915050610159565b50600090505b919050565b6060600080548060200260200160405190810160405280929190818152602001828054801561022157602002820191906000526020600020905b81548152602001906001019080831161020d575b5050505050905090565b600080905060008090505b600080549050811015610274576000818154811061025057fe5b906000526020600020015489141561026757600191505b8080600101915050610236565b508061033f57600088908060018154018082558091505090600182039060005260206000200160009091929091909150555060016040518060e001604052808a8152602001898152602001888152602001878152602001868152602001858152602001848152509080600181540180825580915050906001820390600052602060002001600090919290919091509060076103109291906104d3565b505061033a60006001600080549050038154811061032a57fe5b906000526020600020015461034a565b610340565b5b5050505050505050565b600060016000805490500390506000620186a06001838154811061036a57fe5b9060005260206000200160068154811061038057fe5b90600052602060002001546001848154811061039857fe5b906000526020600020016005815481106103ae57fe5b9060005260206000200154600185815481106103c657fe5b906000526020600020016004815481106103dc57fe5b9060005260206000200154600186815481106103f457fe5b9060005260206000200160038154811061040a57fe5b90600052602060002001546001878154811061042257fe5b9060005260206000200160028154811061043857fe5b90600052602060002001546001888154811061045057fe5b9060005260206000200160018154811061046657fe5b906000526020600020015403020202028161047d57fe5b04905060026040518060400160405280858152602001838152509080600181540180825580915050906001820390600052602060002001600090919290919091509060026104cc929190610520565b5050505050565b82805482825590600052602060002090810192821561050f579160200282015b8281111561050e5782518255916020019190600101906104f3565b5b50905061051c919061056d565b5090565b82805482825590600052602060002090810192821561055c579160200282015b8281111561055b578251825591602001919060010190610540565b5b509050610569919061056d565b5090565b61058f91905b8082111561058b576000816000905550600101610573565b5090565b9056fea265627a7a72315820d9e90fef958c596ad2ac5b77e5e22c48e91c50200497a85b3b54269ca975b6c664736f6c63430005100032",
  "source": "pragma solidity >=0.4.21 <0.7.0;\r\n\r\ncontract Subsidy {\r\n    uint[] private index;\r\n    uint[][] private info;\r\n    uint[][] private bonus;\r\n    \r\n    constructor() public { \r\n        index.push(5600);\r\n        //_ratio = 1, _companyScore = 65\r\n        info.push([5600, 38570, 14389, 4, 1700, 1, 65]);\r\n        cal(index[index.length - 1]);\r\n    }\r\n    \r\n    function pushData(uint _path, uint _cost, uint _incomePerCar, uint _timesPerCar, uint _mileage, uint _ratio, uint _companyScore) public {\r\n        bool tag = false;\r\n        for(uint i = 0; i < index.length; i++) {\r\n            if(_path == index[i]) {\r\n                tag = true;\r\n            }\r\n        }\r\n        if(!tag) {\r\n            index.push(_path);\r\n            //_ratio = 1, _companyScore = 65\r\n            info.push([_path, _cost, _incomePerCar, _timesPerCar, _mileage, _ratio, _companyScore]);\r\n            cal(index[index.length - 1]);\r\n        }\r\n        else {}\r\n    }\r\n    \r\n    function cal(uint _path) private {\r\n        uint i = index.length - 1;\r\n        uint result = (((info[i][1] - info[i][2]) * info[i][3] * info[i][4] * info[i][5] * info[i][6]) / 100000);\r\n        bonus.push([_path, result]);\r\n    }\r\n    \r\n    function getBonus(uint _path) public view returns (uint) {\r\n        for(uint i = 0; i < index.length; i++) {\r\n            if(_path == index[i]) {\r\n                return bonus[i][1];\r\n            }\r\n        }\r\n        return 0;\r\n    }\r\n    \r\n    function indexArray() public view returns (uint[] memory) {\r\n        return index;\r\n    }\r\n  \r\n}",
  "sourcePath": "D:\\code\\MOTC_Competition_Contract\\contracts\\Subsidy.sol",
  "compiler": {
    "name": "solc",
    "version": "0.5.16+commit.9c3226ce.Emscripten.clang"
  },
  "schemaVersion": "3.2.2",
  "updatedAt": "2020-08-21T12:07:21.315Z",
  "networkType": "ethereum",
  "devdoc": {
    "methods": {}
  },
  "userdoc": {
    "methods": {}
  }
}